:020000040000fa
:080000000013040000000000e1
:020000040000fa
:1000080002100000061000000a1000000e10000088
:1000180012100000161000001a1000001e10000038
:1000280022100000261000002a1000002e100000e8
:1000380032100000361000003a1000003e10000098
:1000480042100000461000004a1000004e10000048
:1000580052100000561000005a1000005e100000f8
:1000680062100000661000006a1000006e100000a8
:1000780072100000761000007a1000007e10000058
:1000880082100000861000008a1000008e10000008
:1000980092100000961000009a1000009e100000b8
:1000a800a2100000a6100000aa100000ae10000068
:1000b800b2100000b6100000ba100000be10000018
:1000c800c2100000c6100000ca100000ce100000c8
:1000d800d2100000d6100000da100000de10000078
:1000e800e2100000e6100000ea100000ee10000028
:1000f800f2100000f6100000fa100000fe100000d8
:1001080002110000061100000a1100000e11000083
:1001180012110000161100001a1100001e11000033
:1001280022110000261100002a1100002e110000e3
:1001380032110000361100003a1100003e11000093
:1001480042110000461100004a1100004e11000043
:1001580052110000561100005a1100005e110000f3
:1001680062110000661100006a1100006e110000a3
:1001780072110000761100007a1100007e11000053
:1001880082110000861100008a1100008e11000003
:1001980092110000961100009a1100009e110000b3
:1001a800a2110000a6110000aa110000ae11000063
:1001b800b2110000b6110000ba110000be11000013
:1001c800c2110000c6110000ca110000ce110000c3
:1001d800d2110000d6110000da110000de11000073
:1001e800e2110000e6110000ea110000ee11000023
:1001f800f2110000f6110000fa110000fe110000d3
:1002080002120000061200000a1200000e1200007e
:1002180012120000161200001a1200001e1200002e
:1002280022120000261200002a1200002e120000de
:1002380032120000361200003a1200003e1200008e
:1002480042120000461200004a1200004e1200003e
:1002580052120000561200005a1200005e120000ee
:020000040000fa
:1020000002000000d416040000000000d4160400f2
:1020100000000000d416040000000000d4160400e4
:1020200000000000d416040000000000d4160400d4
:1020300000000000d416040000000000d4160400c4
:1020400000000000d416040000000000d4160400b4
:1020500000000000d416040000000000ba140400c0
:1020600000000000d416040000000000d416040094
:1020700000000000d416040000000000d416040084
:1020800000000000d416040000000000d416040074
:1020900000000000d41604000000000098140400a2
:1020a000000000006c14040000000000d4160400be
:1020b00000000000d416040000000000d416040044
:1020c00000000000d416040000000000d416040034
:1020d00000000000d416040000000000e01404001a
:1020e00000000000d416040000000000d416040014
:1020f00000000000d416040000000000d416040004
:1021000000000000d416040000000000d4160400f3
:1021100000000000d4160400000000003614040083
:1021200000000000d416040000000000d4160400d3
:1021300000000000d416040000000000d4160400c3
:1021400000000000d416040000000000d4160400b3
:1021500000000000d416040000000000d4160400a3
:1021600000000000d416040000000000d416040093
:1021700000000000d416040000000000d416040083
:1021800000000000d416040000000000d416040073
:1021900000000000d416040000000000d416040063
:1021a00000000000d416040000000000d416040053
:1021b00000000000d416040000000000d416040043
:1021c00000000000d416040000000000d416040033
:1021d00000000000d416040000000000d416040023
:1021e00000000000d416040000000000d416040013
:1021f00000000000d416040000000000d416040003
:1022000000000000d416040000000000d4160400f2
:1022100000000000d416040000000000d4160400e2
:1022200000000000d416040000000000d4160400d2
:1022300000000000d416040000000000d4160400c2
:1022400000000000d416040000000000d4160400b2
:1022500000000000d416040000000000d4160400a2
:1022600000000000d416040000000000d416040092
:1022700000000000d416040000000000d416040082
:1022800000000000d416040000000000d416040072
:1022900000000000d416040000000000d416040062
:1022a00000000000d416040000000000d416040052
:1022b00000000000d416040000000000d416040042
:1022c00000000000d416040000000000d416040032
:1022d00000000000d416040000000000d416040022
:1022e00000000000d416040000000000d416040012
:1022f00000000000d416040000000000d416040002
:1023000000000000d416040000000000d4160400f1
:1023100000000000d416040000000000d4160400e1
:1023200000000000d416040000000000d4160400d1
:1023300000000000d416040000000000d4160400c1
:1023400000000000d416040000000000d4160400b1
:1023500000000000d416040000000000d4160400a1
:1023600000000000d416040000000000d416040091
:1023700000000000d416040000000000d416040081
:1023800000000000d416040000000000d416040071
:1023900000000000d416040000000000d416040061
:1023a00000000000d416040000000000d416040051
:1023b00000000000d416040000000000d416040041
:1023c00000000000d416040000000000d416040031
:1023d00000000000d416040000000000d416040021
:1023e00000000000d416040000000000d416040011
:1023f00000000000d416040000000000d416040001
:1024000000000000d416040000000000d4160400f0
:1024100000000000d416040000000000d4160400e0
:1024200000000000d416040000000000d4160400d0
:1024300000000000d4160400000000001215040083
:1024400000000000d416040000000000d4160400b0
:1024500000000000d416040000000000d4160400a0
:1024600000000000d416040000000000d416040090
:1024700000000000d416040000000000a8150400ad
:1024800000000000d416040000000000d416040070
:1024900000000000d4160400000000003e160400f6
:1024a00000000000d416040000000000d416040050
:1024b00000000000d416040000000000d416040040
:0424c0000000000018
:020000040000fa
:10260000cf7222000eff27000e018800000000009c
:10261000000020000000e000020032000001200065
:102620002002880014000700e10107000000e0001c
:1026300003003a00a03c28000100200002003700ff
:102640000000200001002000810f70000100320016
:102650000f000700000020000000e0000200320030
:102660000000020000000000f27f020000000000f5
:102670000040da000000fe00e04320000000e0001f
:1026800002003200002020009001880000000600b7
:10269000a1028800800478000000eb001f003700d2
:1026a000e284440054a0b4009905ba00e2844400d6
:1026b00054a0b4009906ba00e284440054a0b400c7
:1026c0000006eb00476fde00fd07b200ae01880098
:1026d000636ce10003003a000ad801000000eb003f
:1026e0000e003700606ce10008003a00004deb007e
:1026f0000a05e800020039003420ec000af0a000ce
:102700008b05e900f9ff3e00040037006168e10035
:10271000010032000086eb000b00070019c7ba0069
:102720000e04e0001905ba0003003a000a00e000b8
:10273000dbff3a0000000600fe07b200ae02880090
:102740008a047800f5ff37000cd0a300e20f4d009b
:102750001c00390089027800354dba000a05e800ee
:10276000020039003420ec000af0a0008b05e900db
:102770000f003200254dba000a05e80002003900ba
:102780003420ec000af0a0008b05e90008003200bc
:102790000c00e0000600320015cdba000a05e80082
:1027a000020039003420ec000af0a0008b05e9009b
:1027b0008984e80054a0b4000b00e000e2ff3a0076
:1027c000000006009902ba00055d78008b05e9005b
:1027d000f7ff3200c82ade00055d78008b05e900ae
:1027e000f3ff32000c00e000f1ff320019ddba0007
:1027f000eeff37008c76040000000000403a040031
:10280000000000000822040000000000ba260400b6
:1028100000000000c0230400000000008c2b040016
:1028200000000000a6220400000000002420040094
:10283000000000005a28040000000000b24d04000f
:10284000000000008856040000000000b257040099
:102850000000000024580400000000003e44040072
:1028600000000000e26e0400000000003600f800e6
:10287000809fbe00829fbe00849fbe00869fbe00d8
:10288000881f7800f8032100184478000880fb00b6
:1028900000004000e10e220000804000100078009f
:1028a000dc1107000844e8000874a10088407800a3
:1028b000f0032100014878000368a9004f04780064
:1028c0004f03be004f02be004f01be004f00be00ce
:1028d0003600f90000400600809fbe00a0042100e1
:1028e0009000900020009000808f500002003a007d
:1028f0002188a9000c0037004e30ec0000042000b5
:102900004e10e30001003a004e30ef000188a900ac
:10291000a00421009000780020009000008040007a
:102920001080fb00201188004f00be000040060010
:10293000809fbe00821f78000168a90031118000cd
:102940005430ec00000420005410e30001003a0071
:102950005430ef0020052100100178001000900095
:1029600000004100014878004f0178004f00be0090
:10297000004006003600f800809fbe00829fbe0027
:10298000849fbe00869fbe0090878000a187800044
:1029900061004000e080480090878800a18788009f
:1029a0000068a900ca3407004f03be004f02be00f2
:1029b0004f01be004f00be003600f9000040060087
:1029c000801f7800522eab0003003200548ea80006
:1029d000a072800002003700548ea900a07280000f
:1029e000524eab000300320015cea800a07080004c
:1029f0000200370015cea900a0708000526eab0017
:102a00000300320015eea900a0708000020037001c
:102a100015eea800a07080000268a9004f007800a1
:102a2000004006003600f800809fbe00829fbe0076
:102a3000849fbe00869fbe00889fbe00322eab00e2
:102a40003900320010002000003389002066220087
:102a50000008eb0092e1ab001a003a00f00c800095
:102a6000b20c8000283381008000eb00c000dd0044
:102a7000000020008001eb000200700083807000e5
:102a8000929e2e0003002000d90007008004eb0076
:102a9000880f5000898f580002003e00100020006f
:102aa000103389009ae1a800d00c80000008b20021
:102ab000910c80000170a10081007000910c8800d1
:102ac0001b00370080ff2f009821b600c10c80004a
:102ad000e7806000830c80000301600002817000c9
:102ae000820c8800c20c8000820060000100a000ff
:102af000c10c8800c10c8000e78060009001b60026
:102b000000807000800c88009ae1a900d00c800041
:102b10000008b200910c80000170a10081007000db
:102b2000910c880002003700006622000008eb00cc
:102b30000fe8a9004f04be004f03be004f02be00c5
:102b40004f01be004f00be003600f90000400600f5
:102b50003600f800809fbe00829fbe00849fbe00aa
:102b6000869fbe00889fbe00324eab003900320007
:102b70001000200030338900806622000008eb003e
:102b8000a2e1ab001a003a00700d8000320d800007
:102b9000583381008000eb00c000dd000000200001
:102ba0008001eb000200700083807000929e2e0076
:102bb000030020008e0007008004eb00880f500007
:102bc000898f580002003e00100020004033890029
:102bd000aae1a800500d80000008b200110d80008d
:102be0000170a10081007000110d88001b003700ea
:102bf00080ff2f00a821b600410d8000e780600013
:102c0000030d80000301600002817000020d880046
:102c1000420d8000820060000100a000410d88008c
:102c2000410d8000e7806000a001b60000807000c8
:102c3000000d8800aae1a900500d80000008b20034
:102c4000110d80000170a10081007000110d88003d
:102c500002003700606622000008eb0010e8a900bf
:102c60004f04be004f03be004f02be004f01be0026
:102c70004f00be003600f900004006003600f800a4
:102c8000809fbe00829fbe00849fbe00869fbe00c4
:102c9000889fbe00326eab00390032001000200069
:102ca00060338900e06622000008eb00b2e1ab006f
:102cb0001a003a00f00d8000b20d800088338100c8
:102cc0008000eb00c000dd00000020008001eb0070
:102cd0000200700083807000929e2e00030020008e
:102ce000430007008004eb00880f5000898f5800d4
:102cf00002003e001000200070338900bae1a800f5
:102d0000d00d80000008b200910d80000170a1007c
:102d100081007000910d88001b00370080ff2f009c
:102d2000b821b600c10d8000e7806000830d8000ef
:102d30000301600002817000820d8800c20d8000d6
:102d4000820060000100a000c10d8800c10d80005c
:102d5000e7806000b001b60000807000800d880040
:102d6000bae1a900d00d80000008b200910d8000ea
:102d70000170a10081007000910d880002003700f1
:102d8000c06622000008eb001168a9004f04be00d5
:102d90004f03be004f02be004f01be004f00be00f9
:102da0003600f900004006000040da000000fe0096
:102db00000000500839f68000100e00002003d0064
:102dc00060001000e08018000300e00002003d00f9
:102dd00060011100e0811900050007004f00e000cc
:102de00002003b0060001000e080180000000600b8
:102df0006022b800060220000000d0008180d200ce
:102e00000482d2008582d2000000a000020252009b
:102e100083825a00030031000202420083824a008a
:102e20000000a1000603e900f3ff3a0000000600dd
:102e3000efff07000400be000000060080007800dd
:102e40001106b100030035009101b10001003c0002
:102e50000050a10000000600800178000200370049
:102e6000b15978000201e9000200e000fcff3a00dd
:102e70000000060000027800808f50000c00310036
:102e800082814000830f5000090031008200400021
:102e900002003700c36078000201e9000200e00090
:102ea000fcff3a0000000600315a78000201e900f8
:102eb0000200e000fcff3a000000060080017800fc
:102ec00002003700815978000201e9000200e000a9
:102ed000fcff3a00000006000001fa00889fbe00d7
:102ee0008a9fbe008c1f78000004be000205780097
:102ef000f0032000808f51000a003e000000eb002c
:102f000005003700984078001a5c7800195d780059
:102f1000815c78000000e800830f5000f9ff3a0060
:102f20001e003700030678008c0578000010200092
:102f3000800f560001003600800578000b017800f4
:102f40008800780060ef2f000f004000c2ff0700ec
:102f50000b0178008a00780008007800beff0700a7
:102f60000b017800890078000a007800baff07009a
:102f70000b01780061ef2f008f804000090078007e
:102f8000b5ff07000b0656000b0444008b84440079
:102f90000b0545000c00e000e3ff3a004f06780007
:102fa0004f05be004f04be000080fa00000006007e
:102fb0000001fa00889fbe008a9fbe000005be0087
:102fc000f0032000800f510009003e000000eb00dc
:102fd000040037009a4078001b5d7800815d78001e
:102fe0000000e800820f5000faff3a001800370096
:102ff000820478000904780000102000808f5400bb
:103000000100360000047800080178008a0078008a
:1030100080ef2f000f0040008fff070008017800ad
:103020000a00be008cff07000801780081ef2f0026
:103030008f8040000b00780087ff070088845400d1
:1030400008054500888545000900e000e9ff3a00d1
:103050004f05be004f04be000080fa0000000600cd
:10306000889fbe008a9fbe008c1f78008004780075
:10307000010478000205be00040678000800be00c6
:103080000c0001000000e00004003d000b0178008e
:103090008800780009007800c5ff070088007800e4
:1030a0000a0078000c0001000000e00004003d0070
:1030b0000b0178008a00780008007800bcff070048
:1030c0000800be000c0001000000e00004003d000c
:1030d0000b0178008800780009007800b4ff070031
:1030e0004f0678004f05be004f04be0000000600ea
:1030f000889fbe008a9fbe008c9fbe008e1f7800f6
:10310000800278008104780082057800030478004a
:103110000406780005855500820220008299b900d6
:103120008a0f510022003100110009000385d800e8
:10313000000578004355de000a05e80083d5b90094
:103140000a8742000a014500028142008e00780091
:1031500005007800c2ff07008a06ea000a814400e1
:103160000d8044000c027800880178008900780006
:10317000bbff07008d864500e0ff2f0080d5b9001a
:103180000a8045000c027800880178000b01780065
:103190008d007800b2ff07000c02780088017800eb
:1031a0000d017800890078000e00780003003700d8
:1031b0000b0178008900780005007800a8ff07005f
:1031c0004f0778004f06be004f05be004f04be00fb
:1031d00000000600e4874700889fbe008a9fbe006b
:1031e0008c9fbe008e1f78000004be000205be004a
:1031f00084bf9f000906e8000c06460089d8b90084
:10320000000744008cd8b90080064400090078000b
:10321000150037008a0f5600060032008b805600da
:103220000d0078000fb99700020001000000e000d7
:1032300002003d000c06e9008b8656000b01780069
:103240008d0078000e00780059ff07008c00e80020
:10325000818040008b89b9000c0078000d07780050
:1032600082064400010678008a0f5600e9ff360006
:10327000100037000006e9000c06d1008be5b9000c
:103280000a0544008a0078000e0078000fb9970004
:10329000020001000000e000080034000b0178008b
:1032a0008e0078000a00780041ff07000c007800cb
:1032b0000a077800808f5400eeff39004f0778002e
:1032c0004f06be004f05be004f04be004f00b100c8
:1032d000000006000001fa00889fbe008a9fbe0021
:1032e0008c9fbe00000578000106780082057800fa
:1032f0008a0656008b8646008b047800150037003e
:103300000904780000102000808f5400010036006e
:10331000000478008880550081004600080178008c
:1033200040ef2f000f004000cbfe07000881560041
:10333000080045008a007800cefe070008017800ea
:1033400041ef2f008f8040000a007800c2fe070086
:10335000888454000900e000e9ff3a004f06be00ef
:103360004f05be004f04be000080fa0000000600ba
:10337000ea874700889fbe008a9fbe008c9fbe00e0
:103380008e1f78000005780081067800e2b79f0064
:1033900003047800840578009b0037000d06d100f7
:1033a00088e6b9000c06450088e8b9000000450031
:1033b000d0b79f00880446000800ea00f0b79f00dd
:1033c000dfb09700008140000b0278008801780090
:1033d0008c0078000a00780045ff070001003700e4
:1033e0000d0678008c0f5500090031007fb1970061
:1033f000820646008c0078000d0078000b0001006a
:103400000000e000f6ff320001003700888444002d
:103410005fb09700808f5400030039000c077800dc
:1034200089067800110037008c00780009007800c8
:103430000b0001000000e000f4ff3200f7ff37004e
:103440000c00be000b0001000000e000060035008b
:103450001c003a00080178008d007800090078000f
:10346000d3fe07008884440088864600dfb09700ba
:10347000818f560013003100f1ff37007fb19700b4
:10348000820147008c0078000300780083bf9f0012
:103490000b0001008fb997000000e0000800350024
:1034a0000a003a007fb09700000646000801780045
:1034b000830078000c007800bdfe07008fb99700ec
:1034c000030778008e0f5500ecff39008a0f570074
:1034d00014003a00dfb09700818f56002b003200b5
:1034e0008d8f540005003a00080178008c007800a8
:1034f00009007800aefe070005003700880178005b
:10350000090178008c0078000d00780072fe070039
:103510008886460008064600888444000a0778002a
:10352000d2ff37007fb19700020747005fb09700d6
:10353000808f560010003a00828444000206460044
:103540008c0f570006003a000801780089007800c7
:103550000e00780096fe07000e067800c3ff3700c5
:10356000880178000c017800890078000e0078004e
:1035700059fe0700bdff3700080178008e00780073
:103580000d0078008afe0700b7ff3700efb0970004
:103590000100d10001017800c210de0080804000ef
:1035a000e1b79f000a065600110009000886d800fe
:1035b0000006780089865600110009008886d80028
:1035c000800678008d0f560008003e000b02780040
:1035d000880178006fb197008c0078000a007800ad
:1035e00063ff070009057800070037000b02780029
:1035f000880178006fb197008d007800090078008d
:103600005bff07008c067800efb097000100e00038
:103610000400320000022000808f56005fff3e0051
:103620001e00370000022000808f56001b0036006d
:103630008d04d1008904e9000b027800880178002c
:103640000d017800890078000a007800e1fe07008b
:103650000900e000f7ff3a0088e8b900800445005f
:103660008884540008017800890078000a007800f6
:103670004ffe07008d06e9000b02780088017800f4
:103680000d0178008000eb000a007800d1fe0700f1
:10369000e18f5600f2ff3e001f003700e18f560019
:1036a0001d0036008a047800190037008884440021
:1036b0008a007800090078000b0001000000e0009b
:1036c00004003d0008017800890078000a007800b5
:1036d0000e00370009067800010037000e0678005a
:1036e000080756008e007800090078000b000100e2
:1036f0000000e000f9ff3500890f56000400320099
:1037000008017800890078000c007800f1fe0700bd
:103710008d06e900e5ff3a004f0778004f06be002e
:103720004f05be004f04be00af00b1000000060010
:10373000030278008201780001017800820078009d
:103740000bff370080007800010178003104e000b1
:10375000fdff3a00000051000000060080017800e3
:1037600002003700845978000201e9000200e000fd
:1037700006003200314278000404e000f9ff3a000c
:10378000020037008059eb000201e9000200e0006e
:08379000fcff3a0000000600f6
:020000040000fa
:10379800526500006d6f0000766900006e670000da
:1037a8002000000027730000206200006f61000005
:1037b8007264000020660000726f00006d20000037
:1037c8006e650000747700006f7200006b2e0000b9
:1037d8000a00000042450000414300004f4e00002f
:1037e800494e0000470a00000052000065710000c1
:1037f8007565000073740000696e000067200000a2
:103808004c4d0000363000003a200000000a00004d
:1038180000520000657100007565000073740000b7
:10382800696e000067200000445300003136000034
:10383800333100003a2000000041000064640000b9
:10384800696e000067200000626f0000617200006e
:10385800643a000020000000526500006672000013
:1038680065730000686900006e6700002062000050
:103878006f610000726400003a20000000520000ee
:10388800656300006569000076650000642000003b
:10389800434100004e4d0000534700005f540000b4
:1038a80059500000455f0000544500004d5000008d
:1038b80045520000415400005552000045310000b7
:1038c8000a000000537400006f720000696e000067
:1038d800672000004c4d00003630000020640000d6
:1038e8006174000061200000667200006f6d0000c6
:1038f800206100006e6f00007468000065720000af
:10390800206200006f610000726400000a0000007d
:103918006e65000077200000746500006d7000007f
:103928003a2000000052000065730000706f00002c
:103938006e640000696e000067200000746f00006c
:10394800204c00004d36000030200000646100006b
:103958007461000020720000657100007565000048
:10396800737400000a000000736500006e640000b4
:10397800696e000067200000746500006d7000002b
:103988003a200000005200006563000065690000ed
:103998007665000064200000434100004e4d0000a1
:1039a800534700005f54000059500000455f000075
:1039b800544500004d50000045520000415400009d
:1039c80055520000453200000a0000005374000000
:1039d8006f720000696e0000672000004453000009
:1039e80031360000333100002064000061740000ab
:1039f80061200000667200006f6d00002061000009
:103a08006e6f00007468000065720000206200009c
:103a18006f610000726400000a0000005265000037
:103a2800737000006f6e0000646900006e6700002c
:103a3800207400006f20000044530000313600005d
:103a48003331000020640000617400006120000030
:103a5800726500007175000065730000740a00004b
:103a6800000a000062750000696c0000642f000005
:103a7800657300006f7300005f6500006d620000f1
:103a8800656400006465000064460000313400008d
:103a98005f3300003345000050350000313200002c
:103aa8004750000038300000362f00006c610000dd
:103ab800625f0000372f0000743700007379000040
:103ac8006e740000682e0000632c00002062000065
:103ad800756900006c740000206f00006e20000003
:103ae80041700000722000002032000020320000e7
:103af80030310000392000006174000020320000dd
:103b0800313a0000343400003a350000390a000028
:103b18000043000042200000427500007368000066
:103b280000630000626200003333000030000000d0
:103b38005343000020430000616c00006c690000e2
:103b4800636f0000747400000073000063320000ab
:103b580032350000370000004c45000020430000cb
:103b68006173000065790000006c00006563000067
:103b78003432000036000000574f00002043000098
:103b880061720000726f00006c6c0000007700002a
:103b98006f63000031370000004a00004420000035
:103ba800466c0000657400006368000065720000e0
:103bb800006a000064660000343600003900000026
:103bc8004a540000204e0000677500007965000027
:103bd8006e0000006a7400006e3100003336000089
:103be800004e00005220000053690000616e000082
:103bf8006f0000006e720000733100003731000062
:103c0800004900004720000048650000726200007b
:103c180065720000740000006967000068390000e0
:103c2800004c000041200000576100007264000051
:103c3800006c000061770000343400003800000098
:103c4800524b000020480000756e000074650000ab
:103c580072000000726b000068310000333400000d
:103c68000047000020530000696e000067680000ec
:103c7800006700007336000035360000004c000075
:103c880052200000486100007567000068000000cd
:103c98006c720000683200003832000000520000e8
:103ca800452000004f6d0000616c00006c6500004d
:103cb80079000000726500006f37000034000000d2
:103cc800424d00002046000072690000747a00002e
:103cd8006875000067680000006200006d660000fb
:103ce800313500003100000052460000204a000033
:103cf800656e0000736500006e00000072660000cb
:103d08006a310000380000004420000043680000c9
:103d18006170000061670000616900006e000000ca
:103d2800646300003232000037340000004d0000a8
:103d3800412000004d650000726c0000696e0000b3
:103d4800006d0000616d0000313200003138000064
:103d5800004d00002046000061720000686100000c
:103d6800640000006d66000031340000313300004b
:103d78000042000043200000576900006c6b0000ff
:103d8800696e0000736f00006e000000626300003f
:103d98007732000035330000004a00004d20000053
:103da8005072000061740000686500007200000035
:103db8006a6d0000703700003834000000420000cf
:103dc800432000004a6f0000796e00006572000011
:103dd80000620000636a0000313600003200000013
:103de800562000004d610000726f00006a650000f7
:103df8007669000063000000567500006b00000043
:103e08008d9d0000959d0000010100009c9d000013
:103e1800a99d000001020000b09d0000b99d0000ae
:103e280001030000c09d0000cb9d000001040000bc
:103e3800d19d0000dd9d000001050000e49d00000b
:103e4800ee9d000002010000f59d0000fe9d0000af
:103e580002020000059e0000109e00000203000000
:103e6800159e00001d9e000002040000249e000014
:103e78002e9e000002050000359e00003d9e0000b9
:103e880003010000439e00004c9e00000302000056
:103e9800539e00005e9e000003030000649e000025
:103ea800719e000003040000789e0000829e0000be
:103eb80003050000889e0000949e00000401000095
:103ec8009b9e0000a59e000004020000ad9e00001d
:103ed800b69e000004030000bd9e0000ca9e0000bc
:103ee80004040000d19e0000dc9e000004050000d0
:103ef800e39e0000ed9e000007010000f49e000014
:103f0800009f0000070200007a790000787700001f
:103f1800767500007473000072710000706f000005
:103f28006e6d00006c6b00006a6900006867000035
:103f380066650000646300006261000039380000b3
:103f480037360000353400003332000031300000cd
:103f580031320000333400003536000037380000b5
:103f68003961000062630000646500006667000054
:103f7800686900006a6b00006c6d00006e6f0000dd
:103f8800707100007273000074750000767700008d
:103f9800787900007a000000527800002042000082
:103fa80075660000663a000020000000200000004e
:103fb8004d65000073730000616700006520000014
:103fc800494400003a20000000200000726500000b
:103fd8006a650000637400006564000020620000e8
:103fe80079200000616300006365000070740000c0
:103ff800616e00006365000020660000696c0000c7
:0c40080074650000722e00000a00000029
:020000040000fa
:10401400e7006000c808dd00f28f2f000320800055
:1040240003016100028170000220880001208000e9
:10403400c508de00e7806000808f5000fbff3a0077
:1040440000000600881f78000004780028409000d3
:104054000074a00020449800180078003134200037
:10406400810f50006b00320007003e008180e900a0
:10407400810f5000330032004b003e000000e0008e
:104084000b003200d900370071342000810f50003a
:104094009d0032008180e800810f5000b900320099
:1040a400e5805000810f5000d0003a0079003700bd
:1040b4000070ef00993807000001be0010808800ee
:1040c400218088000100210091407800e1cf500058
:1040d400cc0032008180fb00ee0ab90080f621009a
:1040e400000042001002780090029000e00f52009d
:1040f400e08f5a0096003200040151008581590076
:1041040000712200800f5100e08f590079003600c1
:10411400ee09b90080f62100000041000008eb0020
:10412400301078000100e800f200b90001c321005a
:1041340000804000110020000108780010342000a5
:10414400000c7800284090000028a30004003200ee
:1041540040c0b3002044980030c0b300a70037002b
:10416400918580000128a30003003a000004a10007
:1041740020449800020037000004a0002044980066
:10418400284190000040eb000208a3009b003a0085
:104194000120a00091858800c05022000008eb0097
:1041a40020342000000c7800284090000028a30050
:1041b4000400320040c0b3002044980030c0b30073
:1041c4008e003700c1bc2900c05022008b26070096
:1041d400e24f500004003600284090000004a10083
:1041e4002044980003003700284090000004a000f9
:1041f40020449800a84090000040eb000108a30070
:104204007e003a00c05022000008eb003034200049
:10421400000c7800284090000028a300040032001d
:1042240040c0b3002044980030c0b300730037008e
:1042340000d0bf00e2c0b3000440bc0020f621005f
:104244000200400090007800c05022006b26070056
:10425400e24f500004003600284090000004a10002
:104264002044980003003700284090000004a00078
:1042740020449800a84090000040eb000108a300ef
:104284005e003a00c05022000008eb0040342000d9
:10429400000c7800284090000028a300040032009d
:1042a40040c0b3002044980030c0b300530037002e
:1042b40061bd2900c050220050260700e24f500083
:1042c40004003600284090000004a1002044980017
:1042d40003003700284090000004a0002044980008
:1042e400a84090000040eb000108a30043003a00fe
:1042f400b250a900284090000074a1002044980006
:1043040070342000000c7800284090000028a3009e
:104314000400320040c0b3002044980030c0b30011
:10432400360037000004e00003003d000004a10053
:1043340020449800020037000004a00020449800a4
:10434400a84090000040eb000108a3002b003a00b5
:104354000050ec0000f0b700f54f500055ff360058
:10436400ee3707003004980041049800803e200096
:10437400010020005004980061049800903420004b
:10438400000c7800284090000028a30004003200ac
:1043940040c0b3002044980030c0b3001700370079
:1043a40058019000e801900038009000c800900087
:1043b400322e07000000e000040032002840900084
:1043c4000004a10020449800030037002840900016
:1043d4000004a00020449800a84090000040eb0096
:1043e4000108a30032ff32000400370080c0b3008c
:1043f40020449800000ceb0030c0b3004f04780058
:10440400000006000070ec002aff3700881f7800c7
:1044140000047800284090000074a0002044980014
:10442400180078000000e00004003200c11b2000e6
:10443400810f50003e003a0023003700548ea9003b
:1044440015cea90015eea80061e121001100780045
:104454004201dd0070016100a37280000340a100ed
:1044640083017100a3728800e20060008100ea0009
:10447400cf08de00ce08dd00a270800002e0a100bb
:1044840002817000a2708800610060000000a20038
:104494004f00dd00a170800001f0a10081007000d8
:1044a400a17088009d3707003004980041049800eb
:1044b40020032000010020005004980061049800ab
:1044c400c01b2000000c7800284090000028a300a6
:1044d4000400320040c0b3002044980030c0b30050
:1044e4001700370058019000e80190003800900050
:1044f400c8009000e12d07000000e0000400320035
:10450400284090000004a1002044980003003700d4
:10451400284090000004a00020449800a840900087
:104524000040eb000108a300c7ff3200040037007d
:1045340080c0b30020449800000ceb0030c0b300ee
:104544004f047800000006002400fa00881f780059
:1045540000047800284090000074a00020449800d3
:104564001800780011322000810f50000d00320035
:1045740003003e000000e00008003200780037002d
:1045840021322000810f50001f003200e5804000de
:10459400810f500072003a0057003700103220009b
:1045a400000c7800284090000028a300040032008a
:1045b40040c0b3002044980030c0b3006c00370002
:1045c400918580000128a30003003a000004a100a3
:1045d40020449800020037000004a0002044980002
:1045e400284190000040eb000208a30060003a005c
:1045f4000120a00091858800c05022000008eb0033
:1046040020322000000c7800284090000028a300ed
:104614000400320040c0b3002044980030c0b3000e
:1046240053003700e1be2900c05022007325070063
:10463400e24f500004003600284090000004a1001e
:104644002044980003003700284090000004a00094
:1046540020449800a84090000040eb000108a3000b
:1046640043003a00b250a900c0682700952c070007
:1046740080089000910078009101780068815100d1
:10468400a100900081005100f18f5000110036000c
:1046940011142000d1af9f0011c0b300c1e79f00e7
:1046a400f8009000b1b79f0021c0b30081ef9f00d4
:1046b4002fd99700e2ef9f00bfd99700f3ef9f0037
:1046c40081417800c20f210003497800fc80570023
:1046d400af330700113707003004980041049800f5
:1046e40080bb200001002000500498006104980061
:1046f40070322000000c7800284090000028a300ad
:104704000400320040c0b3002044980030c0b3001d
:104714001700370058019000e8019000380090001d
:10472400c8009000552d07000000e000040032008e
:10473400284090000004a1002044980003003700a2
:10474400284090000004a00020449800a840900055
:104754000040eb000108a30090ff32000400370082
:1047640080c0b30020449800000ceb0030c0b300bc
:104774004f0478000080fa0000000600881f7800cb
:1047840000047800a84090000174a000214498001f
:1047940018007800c21f2000820f500084003200ed
:1047a4000e003e0064015100820f50001f003200d1
:1047b40003003e000000e0001a0032005f013700f1
:1047c400911f2000810f5000360032008100e80064
:1047d400810f500059013a00520037005120200047
:1047e400810f5000c800320007003e008180e900bc
:1047f400810f50008b0032008100e800810f5000cf
:104804004e013a00a300370021222000810f5000fe
:1048140018013200e3804000810f500047013a0044
:1048240033013700801f2000000c78000128a3000a
:104834000400320040c0b3002044980030c0b300ec
:1048440042013700928580000248a30003003a0029
:104854000104a10021449800020037000104a000d3
:1048640021449800a84090000040eb000108a300f8
:1048740036013a000240a00092858800c1cab30004
:10488400c06a220001487800c1c0b3000000e800fb
:1048940001487800806822000008eb00901f200087
:1048a400000c7800284090000028a3000400320087
:1048b40040c0b3002044980030c0b3002301370047
:1048c40023002000c26a220001c9b30080682200cc
:1048d400882e0700e24f5000040036002840900064
:1048e4000004a100204498000300370028409000f1
:1048f4000004a00020449800a84090000040eb0071
:104904000108a30011013a0011c5b300c06a2200d6
:1049140001487800806822000008eb00a01f2000f6
:10492400000c7800284090000028a3000400320006
:1049340040c0b3002044980030c0b30003013700e6
:1049440013002000c26a220001c9b300806822005b
:10495400682e0700e24f5000040036002840900003
:104964000004a10020449800030037002840900070
:104974000004a00020449800a84090000040eb00f0
:104984000108a300f1003a00b290a90063360700c1
:104994003004980041049800a00f2000010020007a
:1049a4005004980061049800c01f2000000c780097
:1049b400284090000028a3000400320040c0b30047
:1049c4002044980030c0b300e00037005801900044
:1049d400e801900038009000c8009000a72c070060
:1049e4000000e00004003200284090000004a10010
:1049f4002044980003003700284090000004a000e1
:104a040020449800a84090000040eb000108a30057
:104a1400ce003a001a10e200b0003200302020002c
:104a2400000c7800284090000028a3000400320005
:104a340040c0b3002044980030c0b300c300370026
:104a4400918580000148a30003003a000004a100fe
:104a540020449800020037000004a000204498007d
:104a6400284190000040eb000208a300b7003a0080
:104a74000140a00091858800a1cab300c06a220049
:104a840001487800806822000008eb0040202000e4
:104a9400000c7800284090000028a3000400320095
:104aa40040c0b3002044980030c0b300a7003700d2
:104ab40013002000c26a220001c9b30080682200ea
:104ac4000c2e0700e24f50000400360028409000ee
:104ad4000004a100204498000300370028409000ff
:104ae4000004a00020449800a84090000040eb007f
:104af4000108a30095003a00806822000008eb003a
:104b040050202000000c7800284090000028a300ca
:104b14000400320040c0b3002044980030c0b30009
:104b24008a00370023002000c26a220001c9b300b2
:104b3400806822006f2e0700e24f50000400360008
:104b4400284090000004a10020449800030037008e
:104b5400284090000004a00020449800a840900041
:104b64000040eb000108a30078003a00c06a22006c
:104b7400104078001df0b700d16a220091417800fe
:104b8400c201210003497800b290a9000080fb0013
:104b94008000eb00a3002000c400200005002000da
:104ba400620d220000320700e1c2b300800d220032
:104bb400014878001cd0bf0042c6b3000440bc00ca
:104bc4004890de001cf0b7000080fb008000eb0082
:104bd400a30020008400200005002000920d220084
:104be400f1310700c301210093417800e9cf51005e
:104bf40058003e00900d22008000e80090487800a4
:104c040001c3b30001487800f3c040000080e8000d
:104c14000148780052003700d0587800820f5000c5
:104c2400fdff3a0080c0b3001ef0b7001dd0bf00e6
:104c34004801dd008381fb00c1f721008308710076
:104c44000080fb008000eb00a0ef8800b1ef88003b
:104c5400b23507003004980041049800e02e20008b
:104c640001002000500498006104980020222000d4
:104c7400000c7800284090000028a30004003200b3
:104c840040c0b3002044980030c0b3002f00370068
:104c940058019000e801900038009000c80090008e
:104ca400f62b07000000e0000400320028409000ca
:104cb4000004a1002044980003003700284090001d
:104cc4000004a00020449800a84090000040eb009d
:104cd4000108a3004fff32001c0037002840900059
:104ce4000074a1002044980050222000000c780099
:104cf400284090000028a3000400320040c0b30004
:104d04002044980030c0b300100037000004e000d5
:104d140003003d000004a100204498000200370075
:104d24000004a00020449800a84090000040eb003c
:104d34000108a30037ff32000400370080c0b3002d
:104d440020449800000ceb0030c0b3004f047800fe
:104d54000000060031c4b300b00d22000148780001
:104d6400500d220061e0210068014000aaff3700d5
:104d7400889fbe008a1f7800000578002a409000b2
:104d84000074a000204598001a007800f11c20004f
:104d9400810f50001200320003003e000000e000ca
:104da40008003200a9003700111d2000810f5000b7
:104db40027003200fe804000810f5000a3003a001b
:104dc400880037002010e2007d003200ed2a070041
:104dd400908188000008eb00f01c2000000d780092
:104de4002a4090000028a3000400320040c0b30011
:104df4002045980030c0b3009800370042002000de
:104e04003100200090818000f0230700e24f500021
:104e1400040036002a4090000004a10020459800b8
:104e2400030037002a4090000004a00020459800a9
:104e3400aa4090000040eb000108a30087003a005c
:104e4400908180000008eb00101d2000000d780008
:104e54002a4090000028a3000400320040c0b300a0
:104e64002045980030c0b3007c00370003082000c0
:104e74000041eb0001032100908180004f240700d2
:104e8400e24f5000040036002a4090000004a100c4
:104e940020459800030037002a4090000004a00039
:104ea40020459800aa4090000040eb000108a300b0
:104eb4006a003a003d270700803e2000818180007f
:104ec4000008b800027c280093ff2f000000410076
:104ed400818049001227200003002000c3f7070047
:104ee4000004be006081880071818800d0fb8800c6
:104ef4004206200003002000bcf707004081880020
:104f04005181880042062000828ab9000201b8005b
:104f1400830142000201540083815c0022818800e5
:104f240033818800a3002000c40020000500200075
:104f3400220e22001c310700e1c2b300400e220001
:104f440001487800a3002000840020000500200010
:104f54000001e800208180003181800012310700c7
:104f64002081800031818000e90f5000e08f5800db
:104f74003d003e00500e22008000e800904878007a
:104f840001c3b30001487800f3c040000080e8008a
:104f94000148780037003700d0587800820f50005d
:104fa400fdff3a0080c0b30022f0b70060818000aa
:104fb40071818000d0fb8800d0ee8800e1ee88008b
:104fc400d63407003005980041059800d00720002a
:104fd400010020005005980061059800f01e200093
:104fe400000d78002a4090000028a300040032003d
:104ff40040c0b3002045980030c0b300170037000c
:105004005a019000ea0190003a009000ca00900012
:105014001a2b07000000e000040032002a40900030
:105024000004a10020459800030037002a409000a6
:105034000004a00020459800aa4090000040eb0026
:105044000108a3005fff32000400370080c0b300f2
:1050540020459800000deb0030c0b3004f057800e8
:105064004f04be000000060031c4b300700e2200dd
:1050740001487800100e2200c1de210068014000c2
:10508400c5ff370062c0b3000440bc0081f02900b2
:1050940001014100924090008180fb00c508dd00c1
:1050a4001280fb004800dd000100700000000600d3
:1050b4002400fa00881f780000047800284090003b
:1050c4000074a00020449800180078009124200067
:1050d400810f5000b000320011003e00e680500005
:1050e400810f50005300320006003e000000e00033
:1050f4001d0032008100e900810f500066013a0072
:105104003300370041242000810f50006400320036
:105114008100e800810f50005f013a007c003700f5
:10512400c1242000810f5000eb00320007003e0034
:105134008180e900810f5000b00032008100e80056
:10514400810f500054013a00c70037002125200088
:10515400810f50001f0132008180e800810f500050
:105164004d013a00390137000610e20002003a000e
:105174000810e2003001320010c3210011c0b30056
:1051840090cf10002c01320064340700b2808000fc
:10519400c38080000200500083805800823e2000bb
:1051a400820f5000e08f5800230136000610e20001
:1051b4007000320010c3210010407800b1ff0700d6
:1051c4000010a000a080880020242000000c78009b
:1051d400284090000028a3000400320040c0b3001f
:1051e4002044980030c0b3002f013700918580001f
:1051f4000128a30003003a000004a1002044980001
:10520400020037000004a0002044980028419000c8
:105214000040eb000208a30023013a000120a00093
:1052240091858800c05022000008eb003024200043
:10523400000c7800284090000028a30004003200ed
:1052440040c0b3002044980030c0b30016013700ba
:1052540091bf2900c050220068220700e24f50008d
:1052640004003600284090000004a1002044980067
:1052740003003700284090000004a0002044980058
:10528400a84090000040eb000108a30006013a008a
:10529400c05022000008eb0040242000000c7800dd
:1052a400284090000028a3000400320040c0b3004e
:1052b4002044980030c0b300fb003700a280800077
:1052c4008001eb00c050220067200700e24f50002d
:1052d40004003600284090000004a10020449800f7
:1052e40003003700284090000004a00020449800e8
:1052f400a84090000040eb000108a300ea003a0037
:10530400c05022000008eb0050242000000c78005c
:10531400284090000028a3000400320040c0b300dd
:105324002044980030c0b300df003700b1c029002a
:10533400c050220031220700e24f50000400360022
:10534400284090000004a100204498000300370086
:10535400284090000004a00020449800a840900039
:105364000040eb000108a300cf003a00b250a900ae
:10537400710037000810e2006f00320010c32100f2
:10538400104078003fff07003000b300a080880081
:1053940090242000000c7800284090000028a300ee
:1053a4000400320040c0b3002044980030c0b30071
:1053b400bd003700918580000128a30003003a0056
:1053c4000004a10020449800020037000004a0005b
:1053d40020449800284190000040eb000208a300fc
:1053e400b1003a000120a00091858800c05022003d
:1053f4000008eb00a0242000000c78002840900056
:105404000028a3000400320040c0b30020449800e8
:1054140030c0b300a4003700d1c02900c05022001e
:10542400f6210700e24f50000400360028409000a7
:105434000004a10020449800030037002840900095
:105444000004a00020449800a84090000040eb0015
:105454000108a30094003a00c05022000008eb00a9
:10546400b0242000000c7800284090000028a300fd
:105474000400320040c0b3002044980030c0b300a0
:1054840089003700a28080008001eb00c050220018
:10549400f51f0700e24f500004003600284090003a
:1054a4000004a10020449800030037002840900025
:1054b4000004a00020449800a84090000040eb00a5
:1054c4000108a30078003a00c05022000008eb0055
:1054d400c0242000000c7800284090000028a3007d
:1054e4000400320040c0b3002044980030c0b30030
:1054f4006d003700b1c02900c0502200bf21070051
:10550400e24f500004003600284090000004a1003f
:105514002044980003003700284090000004a000b5
:1055240020449800a84090000040eb000108a3002c
:105534005d003a00b250a900c0682700e1280700c6
:1055440080089000910078009101780068815100f2
:10555400a100900081005100f18f5000110036002d
:10556400a1808000d1af9f0011c0b300c1e79f00ac
:1055740078019000b2b79f0021c0b30081ef9f0073
:10558400afd99700e3ef9f003fd99700f2ef9f0058
:1055940001417800c30f210082497800fc80570044
:1055a400fb2f07005d330700b0808800c1808800ae
:1055b4005a3307003004980041049800803e2000cc
:1055c4000100200050049800610498002025200068
:1055d400000c7800284090000028a300040032004a
:1055e40040c0b3002044980030c0b3002e00370000
:1055f40058019000e801900038009000c800900025
:105604009e2907000000e0000400320028409000ba
:105614000004a100204498000300370028409000b3
:105624000004a00020449800a84090000040eb0033
:105634000108a3001c003a00284090000074a10057
:105644002044980040252000000c78002840900059
:105654000028a3000400320040c0b3002044980096
:1056640030c0b300100037000004e00003003d0028
:105674000004a10020449800020037000004a000a8
:1056840020449800a84090000040eb000108a300cb
:10569400b5fe32000400370080c0b30020449800f7
:1056a400000ceb0030c0b3004f0478000080fa0017
:1056b400000006004800de006700600000000600ed
:1056c400000eb2004500de00000006007f406000ce
:1056d40000000600889fbe000044eb00017e20000d
:1056e400810460000840780066fe0700890f5000be
:1056f40002003a0008407800040037000844e8003b
:10570400f64f5400f7ff3a0000c0eb004f04be0010
:10571400000006003e00fa00889fbe008a1f780041
:1057240000047800284090000074a00020449800f1
:1057340018007800612c2000810f5000c50232004f
:1057440042003e0091282000810f50007b0132006e
:105754001c003e00ed805000810f5000dd0032003f
:1057640009003e00ee805000810f5000820032009c
:10577400ec804000810f5000b40032000000e000d3
:10578400760032007605370011282000810f500082
:105794000d01320004003e008180e900810f5000b9
:1057a4006f053a00ed00370021282000810f5000da
:1057b40024013200e6804000810f500068053a0061
:1057c40045013700612a2000810f50001a0232007f
:1057d4000f003e00f8805000810f50008d01320010
:1057e40004003e008100e900810f50005c053a008e
:1057f4006f013700412a2000810f5000da01320086
:105804008100e800810f500055053a00ef01370090
:10581400a12a2000810f50004202320004003e0001
:10582400e3805000810f50004d053a001e023700fe
:10583400b12a2000810f500053023200fa80400048
:10584400810f500046053a0069023700412f2000bd
:10585400810f5000f003320022003e00412d200051
:10586400810f5000280332000f003e00e6805000f4
:10587400810f5000d502320004003e00e680500043
:10588400810f500036053a008d023700f12c2000bc
:10589400810f5000e6023200e4804000810f500086
:1058a4002f053a00ff023700e12e2000810f50003f
:1058b4008303320004003e008100e900810f5000a0
:1058c40027053a0065033700f12e2000810f5000b0
:1058d400960332008100e800810f500020053a0051
:1058e400ae03370061302000810f5000770432008e
:1058f4000f003e00ee805000810f5000f90332008b
:1059040004003e00e3805000810f500014053a006b
:10591400da033700912f2000810f50000d0432006c
:105924008100e800810f50000d053a00260437007d
:1059340081302000810f5000980432007c0439002b
:105944008100e800810f5000af043200ed80400078
:10595400810f500002053a00ee0437008001eb008d
:105964001200200011002000080078009324070092
:10597400e0262000000c7800284090000028a300b6
:105984000400320040c0b3002044980030c0b3008b
:10599400f70437008808900091007800a100900077
:1059a4000100e000030032000004a100204498003c
:1059b400020037000004a00020449800a840900092
:1059c4000040eb000108a300e9043a00a10b220007
:1059d400080078003e2f070029068100898088008e
:1059e4000900780033ff07000df0b70009007800c4
:1059f40036ff070000457800e00021000a487800df
:105a0400090078002eff07000cf0b70009007800a9
:105a140030ff070080447800e00b220010c0e9004a
:105a240012f0b7000081fb00610c2200400d22003f
:105a340008f50700e14f5500a3003a000904e0000f
:105a4400af043500a0272000000c78002840900007
:105a54000028a3000400320040c0b3002044980092
:105a640030c0b300c2043700918580000128a30030
:105a740003003a000004a10020449800020037000b
:105a84000004a00020449800284190000040eb004e
:105a94000208a300b6043a000120a0009185880002
:105aa4000901fb00ee11b90080f62100000041005d
:105ab4009000900010007800e00f5000e08f580034
:105ac40022003a00c05022000008eb00c02720004a
:105ad400000c7800284090000028a3000400320045
:105ae40040c0b3002044980030c0b300a004370085
:105af40011c22900c050220040200700e24f50008c
:105b040004003600284090000004a10020449800be
:105b140003003700284090000004a00020449800af
:105b2400a84090000040eb000108a30090043a0054
:105b34000900fb000000e800f200b90001c32100e5
:105b4400008040000008eb001b003700c05022001a
:105b54000008eb00f0272000000c7800284090009b
:105b64000028a3000400320040c0b3002044980081
:105b740030c0b3007e04370001c32900c0502200a6
:105b84001e200700e24f5000040036002840900019
:105b94000004a1002044980003003700284090002e
:105ba4000004a00020449800a84090000040eb00ae
:105bb4000108a3006e043a00c05022000008eb0064
:105bc40010282000000c7800284090000028a30032
:105bd4000400320040c0b3002044980030c0b30039
:105be400630437000900fb00ee00b90021f6210030
:105bf4000080400090007800c0502200ff1f070082
:105c0400e24f500004003600284090000004a10038
:105c14002044980003003700284090000004a000ae
:105c240020449800a84090000040eb000108a30025
:105c34004f043a00c05022000008eb002028200046
:105c4400000c7800284090000028a30004003200d3
:105c540040c0b3002044980030c0b300440437006f
:105c6400b1c02900c0502200e41f0700e24f5000d9
:105c740004003600284090000004a100204498004d
:105c840003003700284090000004a000204498003e
:105c9400a84090000040eb000108a30034043a003f
:105ca400b250a9009d3107000001be008900fb002d
:105cb400ee0ab9008400780080f62100808040005c
:105cc4008288be000e043700e24f5500bb013a0043
:105cd40080282000000c7800284090000028a300b1
:105ce4000400320040c0b3002044980030c0b30028
:105cf4001f043700918580000128a30003003a00a7
:105d04000004a10020449800020037000004a00011
:105d140020449800284190000040eb000208a300b2
:105d240013043a000120a00091858800c05022008d
:105d34000008eb0090282000000c78002840900018
:105d44000028a3000400320040c0b300204498009f
:105d540030c0b3000604370031c42900c05022000b
:105d6400a61f0700e24f50000400360028409000b0
:105d74000004a1002044980003003700284090004c
:105d84000004a00020449800a84090000040eb00cc
:105d94000108a300f6033a00b250a90012d0bf00d4
:105da400e24f5000d9003a00d0282000000c7800bf
:105db400284090000028a3000400320040c0b30033
:105dc4002044980030c0b300e90337009185800077
:105dd4000128a30003003a000004a1002044980015
:105de400020037000004a0002044980028419000dd
:105df4000040eb000208a300dd033a000120a000ec
:105e040091858800c05022000008eb00e0282000a3
:105e1400000c7800284090000028a3000400320001
:105e240040c0b3002044980030c0b300d003370012
:105e340061c62900c0502200701f0700e24f5000c5
:105e440004003600284090000004a100204498007b
:105e540003003700284090000004a000204498006c
:105e6400a84090000040eb000108a300c0033a00e2
:105e7400b250a900400d2200104078004801dd0016
:105e8400510d22009180fb008280700051808800b7
:105e94008904fb00ee4ab900c2f621000201420067
:105ea4000109780011c321009180fb00818f540007
:105eb4002b003a000610e200290032000080fb00ab
:105ec4008000eb00a3002000c40020000500200097
:105ed400e20a2200342d0700e1c2b300000b2200c5
:105ee40001487800500d22009080fb0040062000fd
:105ef4008088b9004880de00590d2200804c78006b
:105f04000080fb008000eb00a30020008400200040
:105f140005002000120b2200232d070090c0b300bf
:105f2400994f100005003e00100b22008000e8008d
:105f34009048780001c3b3000148780031c4b3002d
:105f4400300b22000148780066005000c1de2100b9
:105f540068014000d0587800820f5000fdff3a00dd
:105f6400402a2000000c7800284090000028a3005c
:105f74000400320040c0b3002044980030c0b30095
:105f84007b033700918580000128a30003003a00b9
:105f94000004a10020449800020037000004a0007f
:105fa40020449800284190000040eb000208a30020
:105fb4006f033a000120a00091858800c0502200a0
:105fc4000008eb00502a2000000c780028409000c4
:105fd4000028a3000400320040c0b300204498000d
:105fe40030c0b30062033700c1c82900c05022008a
:105ff400021f0700e24f50000400360028409000c2
:106004000004a100204498000300370028409000b9
:106014000004a00020449800a84090000040eb0039
:106024000108a30052033a00c05022000008eb000c
:10603400602a2000000c7800284090000028a3006b
:106044000400320040c0b3002044980030c0b300c4
:1060540047033700528080008001eb00c0502200cb
:10606400011d0700e24f5000040036002840900054
:106074000004a10020449800030037002840900049
:106084000004a00020449800a84090000040eb00c9
:106094000108a30036033a00c05022000008eb00b8
:1060a400702a2000000c7800284090000028a300eb
:1060b4000400320040c0b3002044980030c0b30054
:1060c4002b033700b1c02900c0502200cb1e0700ab
:1060d400e24f500004003600284090000004a10064
:1060e4002044980003003700284090000004a000da
:1060f40020449800a84090000040eb000108a30051
:106104001b033a00b250a900fd0237000004e0006e
:10611400fb023a00e1cf5400f9023a00a02a200021
:10612400000c7800284090000028a30004003200ee
:1061340040c0b3002044980030c0b3000c033700c3
:10614400918580000128a30003003a000004a10007
:1061540020449800020037000004a0002044980066
:10616400284190000040eb000208a30000033a001d
:106174000120a00091858800c05022000008eb0097
:10618400b02a2000000c7800284090000028a300ca
:106194000400320040c0b3002044980030c0b30073
:1061a400f302370071c92900c0502200931e070072
:1061b400e24f500004003600284090000004a10083
:1061c4002044980003003700284090000004a000f9
:1061d40020449800a84090000040eb000108a30070
:1061e400e3023a00b250a900502c2000000c7800c1
:1061f400284090000028a3000400320040c0b300ef
:106204002044980030c0b300d90237009185800043
:106214000128a30003003a000004a10020449800d0
:10622400020037000004a000204498002841900098
:106234000040eb000208a300cd023a000120a000b8
:1062440091858800c05022000008eb00602c2000db
:10625400000c7800284090000028a30004003200bd
:1062640040c0b3002044980030c0b300c0023700df
:1062740081cb2900c0502200601e0700e24f50006d
:1062840004003600284090000004a1002044980037
:1062940003003700284090000004a0002044980028
:1062a400a84090000040eb000108a300b0023a00af
:1062b400c05022000008eb00802c2000000c780065
:1062c400284090000028a3000400320040c0b3001e
:1062d4002044980030c0b300a5023700b1c02900a3
:1062e400c0502200451e0700e24f50000400360053
:1062f400284090000004a1002044980003003700c7
:10630400284090000004a00020449800a840900079
:106314000040eb000108a30095023a00b250a90026
:10632400c068270067250700800890009100780066
:106334009101780068815100a10090008100510012
:10634400f38f50006e02360021142000e19f9f005d
:10635400430d220013427800e47f9f000301e8000c
:1063640092407800f17f9f0011c0b300e1c79f0005
:1063740078029000c4a79f0041c0b300a1cf9f0042
:106384004f7a970084d79f005f7a970094d79f0035
:1063940093417800a3d79f0012417800b2d79f00a1
:1063a40081417800c20f21000349780061fc2f006d
:1063b4008f804000762c070051023700e34f5500d0
:1063c4004f023a00e02c2000000c78002840900096
:1063d4000028a3000400320040c0b3002044980009
:1063e40030c0b30062023700918580000128a30009
:1063f40003003a000004a100204498000200370082
:106404000004a00020449800284190000040eb00c4
:106414000208a30056023a000120a00091858800da
:10642400c05022000008eb00f02c2000000c780083
:10643400284090000028a3000400320040c0b300ac
:106444002044980030c0b3004902370071cc2900c1
:10645400c0502200e91d0700e24f5000040036003e
:10646400284090000004a100204498000300370055
:10647400284090000004a00020449800a840900008
:106484000040eb000108a30039023a00b250a90011
:1064940012d0bf00e24f5000d9003a00302d200046
:1064a400000c7800284090000028a300040032006b
:1064b40040c0b3002044980030c0b3002c02370021
:1064c400918580000128a30003003a000004a10084
:1064d40020449800020037000004a00020449800e3
:1064e400284190000040eb000208a30020023a007b
:1064f4000120a00091858800c05022000008eb0014
:10650400402d2000000c7800284090000028a300b3
:106514000400320040c0b3002044980030c0b300ef
:1065240013023700a1ce2900c0502200b31d07007a
:10653400e24f500004003600284090000004a100ff
:106544002044980003003700284090000004a00075
:1065540020449800a84090000040eb000108a300ec
:1065640003023a00b250a900400d22001040780006
:106574004801dd00510d22009180fb0082807000f3
:10658400518088008904fb00ee4ab900e2f621003c
:10659400020142000109780011c321009180fb002f
:1065a400818f54002b003a000810e20029003200c9
:1065b4000080fb008000eb00a3002000c40020004a
:1065c40005002000220a2200772b0700e1c2b30055
:1065d400400a220001487800500d22009080fb0000
:1065e400400620008088b9004880de00590d220052
:1065f400804c78000080fb008000eb00a3002000aa
:106604008400200005002000520a2200662b0700a7
:1066140094c0b300994f120005003e00500a2200b6
:106624008000e8009048780001c3b3000148780076
:1066340031c4b300700a220001487800660050009b
:1066440061e0210068014000d0587800820f5000ba
:10665400fdff3a00d02e2000000c78002840900066
:106664000028a3000400320040c0b3002044980076
:1066740030c0b300be013700918580000128a3001b
:1066840003003a000004a1002044980002003700ef
:106694000004a00020449800284190000040eb0032
:1066a4000208a300b2013a000120a00091858800ed
:1066b400c05022000008eb00e02e2000000c7800ff
:1066c400284090000028a3000400320040c0b3001a
:1066d4002044980030c0b300a5013700c1c8290088
:1066e400c0502200451d0700e24f50000400360050
:1066f400284090000004a1002044980003003700c3
:10670400284090000004a00020449800a840900075
:106714000040eb000108a30095013a00c05022009c
:106724000008eb00f02e2000000c780028409000b8
:106734000028a3000400320040c0b30020449800a5
:1067440030c0b3008a013700528080008001eb0022
:10675400c0502200441b0700e24f500004003600e2
:10676400284090000004a100204498000300370052
:10677400284090000004a00020449800a840900005
:106784000040eb000108a30079013a00c050220048
:106794000008eb00002f2000000c78002840900037
:1067a4000028a3000400320040c0b3002044980035
:1067b40030c0b3006e013700b1c02900c0502200c0
:1067c4000e1d0700e24f50000400360028409000e0
:1067d4000004a100204498000300370028409000e2
:1067e4000004a00020449800a84090000040eb0062
:1067f4000108a3005e013a00b250a900400137002d
:106804000004e0003e013a00e1cf54003c013a00ac
:10681400402f2000000c7800284090000028a3009e
:106824000400320040c0b3002044980030c0b300dc
:106834004f013700918580000128a30003003a002e
:106844000004a10020449800020037000004a000c6
:1068540020449800284190000040eb000208a30067
:1068640043013a000120a00091858800c050220015
:106874000008eb00502f2000000c78002840900006
:106884000028a3000400320040c0b3002044980054
:1068940030c0b3003601370021d12900c050220096
:1068a400d61c0700e24f5000040036002840900038
:1068b4000004a10020449800030037002840900001
:1068c4000004a00020449800a84090000040eb0081
:1068d4000108a30026013a00b250a900802f20002d
:1068e400000c7800284090000028a3000400320027
:1068f40040c0b3002044980030c0b3001c013700ee
:10690400918580000148a30003003a000004a1001f
:1069140020449800020037000004a000204498009e
:10692400284190000040eb000208a30010013a0047
:106934000140a00091858800a1cab300c06a22006a
:1069440001487800806822000008eb00902f2000a6
:10695400000c7800284090000028a30004003200b6
:1069640040c0b3002044980030c0b3000001370099
:1069740013002000c26a220001c9b300806822000b
:106984005c260700e24f50000400360028409000c7
:106994000004a10020449800030037002840900020
:1069a4000004a00020449800a84090000040eb00a0
:1069b4000108a300ee003a00806822000008eb0002
:1069c400a02f2000000c7800284090000028a3008d
:1069d4000400320040c0b3002044980030c0b3002b
:1069e400e300370023002000c26a220001c9b3007b
:1069f40080682200bf260700e24f500004003600e2
:106a0400284090000004a1002044980003003700af
:106a1400284090000004a00020449800a840900062
:106a24000040eb000108a300d1003a00c06a220034
:106a340010407800410d2200804878008104e8006d
:106a4400d16a2200914c7800b290a9000080fb002a
:106a54008000eb00a3002000c400200005002000fb
:106a640062092200502a0700e1c2b3008009220013
:106a7400014878009980fb00400620008088b90016
:106a84004880de00804c78000080fb008000eb0032
:106a9400a3002000840020000500200092092200a9
:106aa400412a070090c0b300994f100005003e0032
:106ab400900922008000e8009048780001c3b300e8
:106ac4000148780060302000000c780028409000d5
:106ad4000028a3000400320040c0b3002044980002
:106ae40030c0b300a2003700918580000128a300c4
:106af40003003a000004a10020449800020037007b
:106b04000004a00020449800284190000040eb00bd
:106b14000208a30096003a000120a0009185880095
:106b2400c05022000008eb0070302000000c7800f8
:106b3400284090000028a3000400320040c0b300a5
:106b44002044980030c0b3008900370081cb29006d
:106b5400c0502200291c0700e24f500004003600f8
:106b6400284090000004a10020449800030037004e
:106b7400284090000004a00020449800a840900001
:106b84000040eb000108a30079003a00c050220045
:106b94000008eb0080302000000c780028409000b2
:106ba4000028a3000400320040c0b3002044980031
:106bb40030c0b3006e00370061092200c0502200cb
:106bc4000e1c0700e24f50000400360028409000dd
:106bd4000004a100204498000300370028409000de
:106be4000004a00020449800a84090000040eb005e
:106bf4000108a3005e003a00c05022000008eb0028
:106c040090302000000c7800284090000028a30059
:106c14000400320040c0b3002044980030c0b300e8
:106c240053003700b1c02900c0502200f31b0700f5
:106c3400e24f500004003600284090000004a100f8
:106c44002044980003003700284090000004a0006e
:106c540020449800a84090000040eb000108a300e5
:106c640043003a00b250a900c0682700152307006a
:106c740080089000910078009101780068815100ab
:106c8400a100900081005100f38f50001c003600d9
:106c940031142000e19f9f00430d2200134278002d
:106ca400e47f9f000301e80092407800f17f9f0099
:106cb40011c0b30081e79f007802900094b79f0051
:106cc40041c0b300c1e79f004f7a9700a4ef9f0033
:106cd4005f7a9700b4ef9f0093417800c3ef9f0061
:106ce40012417800d2ef9f0081417800c20f210049
:106cf4000349780001fe2f008f804000242a0700fa
:106d0400284090000074a1002044980060312000c5
:106d1400000c7800284090000028a30004003200f2
:106d240040c0b3002044980030c0b30010003700c6
:106d34000004e00003003d000004a100204498008a
:106d4400020037000004a00020449800a8409000ee
:106d54000040eb000108a30005fb320004003700eb
:106d640080c0b30020449800000ceb0030c0b30096
:106d74004f0578004f04be000080fa0000000600b2
:106d8400889fbe00810478000244780051fa07000d
:106d94008040780000c0eb0080cf50000900320032
:106da4000881fb000100fb00e600b90041f0290066
:106db40000804000900078000900780066f2070027
:106dc4000040eb004f04be0000000600889fbe0098
:106dd4008a9fbe008c9fbe008e1f780066f029003b
:106de400a5c321000002eb00ea8652008cc6b30062
:106df4005bc6b300c8c6b30007c7b3003ec7b30041
:106e04008044eb0018003700d06878001004e000dc
:106e140002003200830f5000fbff3a000c49780057
:106e24001b41980028419800374198004741980039
:106e3400584198006e4198007941980004407800c8
:106e44000004a2000080fb000000ea004f00de0006
:106e5400400198000402e80066034300f282420005
:106e6400f60f52000c00320016007800050178007d
:106e74009041780083fa9f001004e000e7ff32009d
:106e8400f225b9008a0078008180e8008d804000f6
:106e9400e7014000dcff37004f0778004f06be00d3
:106ea4004f05be004f04be000000060030aea9002e
:106eb40036aea9003aaea9003caea900312ea80016
:106ec400372ea9003b2ea9003d2ea900308ea90023
:106ed400368ea9003a8ea9003c8ea900300ea90076
:106ee400360ea9003a0ea9003c0ea900f10f2c00a1
:106ef4002034800080806000006020000100700069
:106f04002034880000fc2f008406b6005000b30033
:106f14002034880000f82f00c806b6009004b3009f
:106f2400403688007053200010128800344ea800a8
:106f3400340ea80041e2a800000006003082880058
:106f440041828800228288000000e00002003a00aa
:106f54004070ef000200370010c0b30040f0b700eb
:106f64000100e00002003a004170ef000200370027
:106f740010c0b30041f0b70040c2ab0001003200c2
:106f840040c2a9000148a900401280004230ef002d
:106f94000200e0001d0032000604210016437800c0
:106fa40015042100954278002482800033828000f9
:106fb400428280000000eb008003eb000604e00046
:106fc40003003200b300780041128800010037004a
:106fd400471288004022ab00feff3a004002ab009b
:106fe400feff3200411280000504e000010032007f
:106ff400011978000000e800800f5200efff3e0006
:1070040033828800428288001082880000000600d3
:107014000200fa004400de00010023008100700039
:10702400f1bf9f00340ea900120020008000eb0085
:107034000f80e900c1ff0700340ea8000080fa00a9
:1070440000000600889fbe00000478008143780099
:1070540002427800a84290000574a00025449800dc
:1070640098027800b6152000868f52007f00320007
:1070740006003e000500e0000e003200a0152000ce
:10708400808f5200f7003a005a003700f0152000b4
:10709400808f5200b50032006b004000808f520098
:1070a400de0032006d005000808f5200ed003a0087
:1070b4008b00370003407800f2cfb3000440bc00db
:1070c400e5012000110009000501d8008042780084
:1070d40036f0b7000704e00015003a008082fb0098
:1070e400c229dd00c10e2200020820000101410076
:1070f4000000eb008028780003004000828f5000dd
:10710400fcff3a00c4ff2f0084aab900c828dd00a0
:10711400c016220002082000000141000128780066
:1071240084804000820f5000fcff3a001e003700ac
:10713400e1cf530022003a000482fb004722dd0025
:10714400b047210000a0b900c30bde00c20e22002c
:107154000000eb008783fb000043eb0080c4eb00de
:107164008582fb000308200086407800808f53004e
:1071740001003600894078000182fb0085a2b90035
:10718400042978000000e800830f5000f6ff3a005d
:10719400014078003af0b700e4818800000820003c
:1071a400c08188009800370020c0b3003af0b700cf
:1071b40085824200e58188003830ef009200370074
:1071c40007c0e900e14f50008f003e00e2cf5300ba
:1071d40002003a003e70ef000200370000c8b3001e
:1071e4003ef0b7002368a9003830ef00a015200056
:1071f400000c7800284090000028a300040032000e
:1072040040c0b3002044980030c0b3009900370058
:10721400918580000148a30003003a000004a10006
:1072240020449800020037000004a0002044980085
:10723400284190000040eb000208a3008d003a00b2
:107244000140a00091858800e203210012417800ea
:10725400c1818000c06a2200014841008068220088
:107264000008eb00b0152000000c780028409000c6
:107274000028a3000400320040c0b300204498005a
:1072840030c0b3007b00370013002000c26a220024
:1072940001cab3008068220016240700e24f5000a0
:1072a40004003600284090000004a1002044980007
:1072b40003003700284090000004a00020449800f8
:1072c400a84090000040eb000108a30069003a00c8
:1072d400806822000008eb00d0152000000c780024
:1072e400284090000028a3000400320040c0b300ee
:1072f4002044980030c0b3005e0037001300200023
:10730400a203210001cab300806822007924070087
:10731400e24f500004003600284090000004a10011
:107324002044980003003700284090000004a00087
:1073340020449800a84090000040eb000108a300fe
:107344004c003a00b290a900f42b070030049800d6
:10735400410498001000200001002000500498000f
:1073640061049800f0152000000c7800284090007b
:107374000028a3000400320040c0b3002044980059
:1073840030c0b3003b00370058019000e801900082
:1073940038009000c8009000382207000000e00088
:1073a40004003200284090000004a100204498000a
:1073b40003003700284090000004a00020449800f7
:1073c400a84090000040eb000108a30029003a0007
:1073d4003ad0bf003650bc00e2818800c0818000f2
:1073e40080004000e30e2200818041008208780082
:1073f4000000e800c0818800f1072000810f5000e0
:107404007aff36002368a800284090000074a10089
:1074140020449800a0162000000c7800284090001a
:107424000028a3000400320040c0b30020449800a8
:1074340030c0b3000f0037000004e00003003d003b
:107444000004a10020449800020037000004a000ba
:1074540020449800a84090000040eb000108a300dd
:1074640004003a0080c0b30020449800000ceb00f4
:1074740030c0b3004f04be0000000600881f78002f
:1074840000047800284090000074a0002044980074
:1074940018007800e1182000810f500036013200f6
:1074a40021003e00ea805000810f5000a10032000c
:1074b4000e003e00f1805000810f50004100320068
:1074c40003003e000000e000390032004b023700a8
:1074d400f1172000810f5000630032008180e80022
:1074e400810f500045023a007b00370091182000bc
:1074f400810f5000ce00320004003e008180e9007c
:10750400810f50003d023a00ad003700a118200061
:10751400810f5000e20032008180e800810f5000aa
:1075240036023a00fe003700e1192000810f5000b6
:10753400ab0132000f003e00ec805000810f500080
:107544004601320004003e008180e900810f5000b2
:107554002a023a002b01370041192000810f500004
:1075640061013200e6804000810f500023023a009e
:107574007e013700711a2000810f5000d6013200bd
:1075840004003e00e4805000810f50001b023a00ca
:10759400b4013700911a2000810f5000e901320034
:1075a4008180e800810f500014023a000002370085
:1075b400f4200700a08188000008eb0030172000a9
:1075c400000c7800284090000028a300040032003a
:1075d40040c0b3002044980030c0b3000b02370011
:1075e40093f1800072f2800030e621009040780030
:1075f400a081800093fe0700e24f50000400360093
:10760400284090000004a1002044980003003700a3
:10761400284090000004a00020449800a840900056
:107624000040eb000108a300f8013a0030e6210015
:1076340011c0b30090cf100003003a0040ef2100c6
:107644000008eb000200370010002000a0f78800bb
:107654001000200000848800c0ea21001084880003
:10766400f0172000000c7800284090000028a300a8
:107674000400320040c0b3002044980030c0b3007e
:10768400e20137008010e20003003a000004a10088
:1076940020449800020037000004a0002044980011
:1076a400a84090000040eb000108a300d7013a0075
:1076b400d0ea2100104078000004e00038003a00cd
:1076c400100020000084880020e621001084880037
:1076d40010182000000c7800284090000028a30017
:1076e4000400320040c0b3002044980030c0b3000e
:1076f400c60137008010e20003003a000004a10034
:1077040020449800020037000004a00020449800a0
:10771400a84090000040eb000108a300bb013a0020
:1077240098200700a08188000008eb004018200082
:10773400000c7800284090000028a30004003200c8
:1077440040c0b3002044980030c0b300af013700fc
:1077540093f1800072f2800030e6210090407800be
:10776400a081800037fe0700e24f5000040036007d
:10777400284090000004a100204498000300370032
:10778400284090000004a00020449800a8409000e5
:107794000040eb000108a300a4ff32009b01370066
:1077a400e14f500056003a00300020000084880069
:1077b400e0db21001084880070182000000c7800a1
:1077c400284090000028a3000400320040c0b30009
:1077d4002044980030c0b3008c0137008010e200d0
:1077e40003003a000004a10020449800020037007e
:1077f4000004a00020449800a84090000040eb0042
:107804000108a30081013a0032ee8000cf91de002e
:10781400d0462e000100200065ed0700d008880046
:10782400c05022000008eb0090182000000c7800e3
:10783400284090000028a3000400320040c0b30098
:107844002044980030c0b30070013700d208800093
:107854008001eb00c050220003170700e24f5000e4
:1078640004003600284090000004a1002044980041
:1078740003003700284090000004a0002044980032
:10788400a84090000040eb000108a3005f013a000b
:10789400c05022000008eb00a0182000000c780063
:1078a400284090000028a3000400320040c0b30028
:1078b4002044980030c0b30054013700a1c0b30085
:1078c400c050220093150700e24f50000400360018
:1078d400284090000004a1002044980003003700d1
:1078e400284090000004a00020449800a840900084
:1078f4000040eb000108a3004cff320043013700b5
:10790400e24f500037003a00300020000084880025
:10791400a0e2210010848800c0182000000c780028
:10792400284090000028a3000400320040c0b300a7
:107934002044980030c0b300340137008010e200c6
:1079440003003a000004a10020449800020037001c
:107954000004a00020449800a84090000040eb00e0
:107964000108a30029013a00a08180000008eb006f
:10797400e0182000000c7800284090000028a300a4
